{
	"data": {
		"bytecode": {
			"linkReferences": {},
			"object": "608060405260008060006101000a8154816fffffffffffffffffffffffffffffffff02191690836fffffffffffffffffffffffffffffffff16021790555034801561004957600080fd5b5061045d806100596000396000f3fe608060405234801561001057600080fd5b50600436106100575760003560e01c80633ea23f321461005c57806385bb7d6914610078578063bbaa082014610096578063da34d88b146100b2578063feb99390146100ce575b600080fd5b6100766004803603810190610071919061023b565b6100ea565b005b610080610131565b60405161008d9190610286565b60405180910390f35b6100b060048036038101906100ab919061023b565b610151565b005b6100cc60048036038101906100c7919061023b565b610198565b005b6100e860048036038101906100e3919061023b565b6101df565b005b80826100f691906102e7565b6000806101000a8154816fffffffffffffffffffffffffffffffff02191690836fffffffffffffffffffffffffffffffff1602179055505050565b60008054906101000a90046fffffffffffffffffffffffffffffffff1681565b808261015d9190610318565b6000806101000a8154816fffffffffffffffffffffffffffffffff02191690836fffffffffffffffffffffffffffffffff1602179055505050565b80826101a49190610362565b6000806101000a8154816fffffffffffffffffffffffffffffffff02191690836fffffffffffffffffffffffffffffffff1602179055505050565b80826101eb91906102a1565b6000806101000a8154816fffffffffffffffffffffffffffffffff02191690836fffffffffffffffffffffffffffffffff1602179055505050565b60008135905061023581610410565b92915050565b6000806040838503121561024e57600080fd5b600061025c85828601610226565b925050602061026d85828601610226565b9150509250929050565b61028081610396565b82525050565b600060208201905061029b6000830184610277565b92915050565b60006102ac82610396565b91506102b783610396565b9250826fffffffffffffffffffffffffffffffff038211156102dc576102db6103b2565b5b828201905092915050565b60006102f282610396565b91506102fd83610396565b92508261030d5761030c6103e1565b5b828204905092915050565b600061032382610396565b915061032e83610396565b9250816fffffffffffffffffffffffffffffffff0483118215151615610357576103566103b2565b5b828202905092915050565b600061036d82610396565b915061037883610396565b92508282101561038b5761038a6103b2565b5b828203905092915050565b60006fffffffffffffffffffffffffffffffff82169050919050565b7f4e487b7100000000000000000000000000000000000000000000000000000000600052601160045260246000fd5b7f4e487b7100000000000000000000000000000000000000000000000000000000600052601260045260246000fd5b61041981610396565b811461042457600080fd5b5056fea264697066735822122030ee50c9967766fcf606f2031bc7473099829b398262f60624639e99ee4fdbe264736f6c63430008030033",
			"opcodes": "PUSH1 0x80 PUSH1 0x40 MSTORE PUSH1 0x0 DUP1 PUSH1 0x0 PUSH2 0x100 EXP DUP2 SLOAD DUP2 PUSH16 0xFFFFFFFFFFFFFFFFFFFFFFFFFFFFFFFF MUL NOT AND SWAP1 DUP4 PUSH16 0xFFFFFFFFFFFFFFFFFFFFFFFFFFFFFFFF AND MUL OR SWAP1 SSTORE POP CALLVALUE DUP1 ISZERO PUSH2 0x49 JUMPI PUSH1 0x0 DUP1 REVERT JUMPDEST POP PUSH2 0x45D DUP1 PUSH2 0x59 PUSH1 0x0 CODECOPY PUSH1 0x0 RETURN INVALID PUSH1 0x80 PUSH1 0x40 MSTORE CALLVALUE DUP1 ISZERO PUSH2 0x10 JUMPI PUSH1 0x0 DUP1 REVERT JUMPDEST POP PUSH1 0x4 CALLDATASIZE LT PUSH2 0x57 JUMPI PUSH1 0x0 CALLDATALOAD PUSH1 0xE0 SHR DUP1 PUSH4 0x3EA23F32 EQ PUSH2 0x5C JUMPI DUP1 PUSH4 0x85BB7D69 EQ PUSH2 0x78 JUMPI DUP1 PUSH4 0xBBAA0820 EQ PUSH2 0x96 JUMPI DUP1 PUSH4 0xDA34D88B EQ PUSH2 0xB2 JUMPI DUP1 PUSH4 0xFEB99390 EQ PUSH2 0xCE JUMPI JUMPDEST PUSH1 0x0 DUP1 REVERT JUMPDEST PUSH2 0x76 PUSH1 0x4 DUP1 CALLDATASIZE SUB DUP2 ADD SWAP1 PUSH2 0x71 SWAP2 SWAP1 PUSH2 0x23B JUMP JUMPDEST PUSH2 0xEA JUMP JUMPDEST STOP JUMPDEST PUSH2 0x80 PUSH2 0x131 JUMP JUMPDEST PUSH1 0x40 MLOAD PUSH2 0x8D SWAP2 SWAP1 PUSH2 0x286 JUMP JUMPDEST PUSH1 0x40 MLOAD DUP1 SWAP2 SUB SWAP1 RETURN JUMPDEST PUSH2 0xB0 PUSH1 0x4 DUP1 CALLDATASIZE SUB DUP2 ADD SWAP1 PUSH2 0xAB SWAP2 SWAP1 PUSH2 0x23B JUMP JUMPDEST PUSH2 0x151 JUMP JUMPDEST STOP JUMPDEST PUSH2 0xCC PUSH1 0x4 DUP1 CALLDATASIZE SUB DUP2 ADD SWAP1 PUSH2 0xC7 SWAP2 SWAP1 PUSH2 0x23B JUMP JUMPDEST PUSH2 0x198 JUMP JUMPDEST STOP JUMPDEST PUSH2 0xE8 PUSH1 0x4 DUP1 CALLDATASIZE SUB DUP2 ADD SWAP1 PUSH2 0xE3 SWAP2 SWAP1 PUSH2 0x23B JUMP JUMPDEST PUSH2 0x1DF JUMP JUMPDEST STOP JUMPDEST DUP1 DUP3 PUSH2 0xF6 SWAP2 SWAP1 PUSH2 0x2E7 JUMP JUMPDEST PUSH1 0x0 DUP1 PUSH2 0x100 EXP DUP2 SLOAD DUP2 PUSH16 0xFFFFFFFFFFFFFFFFFFFFFFFFFFFFFFFF MUL NOT AND SWAP1 DUP4 PUSH16 0xFFFFFFFFFFFFFFFFFFFFFFFFFFFFFFFF AND MUL OR SWAP1 SSTORE POP POP POP JUMP JUMPDEST PUSH1 0x0 DUP1 SLOAD SWAP1 PUSH2 0x100 EXP SWAP1 DIV PUSH16 0xFFFFFFFFFFFFFFFFFFFFFFFFFFFFFFFF AND DUP2 JUMP JUMPDEST DUP1 DUP3 PUSH2 0x15D SWAP2 SWAP1 PUSH2 0x318 JUMP JUMPDEST PUSH1 0x0 DUP1 PUSH2 0x100 EXP DUP2 SLOAD DUP2 PUSH16 0xFFFFFFFFFFFFFFFFFFFFFFFFFFFFFFFF MUL NOT AND SWAP1 DUP4 PUSH16 0xFFFFFFFFFFFFFFFFFFFFFFFFFFFFFFFF AND MUL OR SWAP1 SSTORE POP POP POP JUMP JUMPDEST DUP1 DUP3 PUSH2 0x1A4 SWAP2 SWAP1 PUSH2 0x362 JUMP JUMPDEST PUSH1 0x0 DUP1 PUSH2 0x100 EXP DUP2 SLOAD DUP2 PUSH16 0xFFFFFFFFFFFFFFFFFFFFFFFFFFFFFFFF MUL NOT AND SWAP1 DUP4 PUSH16 0xFFFFFFFFFFFFFFFFFFFFFFFFFFFFFFFF AND MUL OR SWAP1 SSTORE POP POP POP JUMP JUMPDEST DUP1 DUP3 PUSH2 0x1EB SWAP2 SWAP1 PUSH2 0x2A1 JUMP JUMPDEST PUSH1 0x0 DUP1 PUSH2 0x100 EXP DUP2 SLOAD DUP2 PUSH16 0xFFFFFFFFFFFFFFFFFFFFFFFFFFFFFFFF MUL NOT AND SWAP1 DUP4 PUSH16 0xFFFFFFFFFFFFFFFFFFFFFFFFFFFFFFFF AND MUL OR SWAP1 SSTORE POP POP POP JUMP JUMPDEST PUSH1 0x0 DUP2 CALLDATALOAD SWAP1 POP PUSH2 0x235 DUP2 PUSH2 0x410 JUMP JUMPDEST SWAP3 SWAP2 POP POP JUMP JUMPDEST PUSH1 0x0 DUP1 PUSH1 0x40 DUP4 DUP6 SUB SLT ISZERO PUSH2 0x24E JUMPI PUSH1 0x0 DUP1 REVERT JUMPDEST PUSH1 0x0 PUSH2 0x25C DUP6 DUP3 DUP7 ADD PUSH2 0x226 JUMP JUMPDEST SWAP3 POP POP PUSH1 0x20 PUSH2 0x26D DUP6 DUP3 DUP7 ADD PUSH2 0x226 JUMP JUMPDEST SWAP2 POP POP SWAP3 POP SWAP3 SWAP1 POP JUMP JUMPDEST PUSH2 0x280 DUP2 PUSH2 0x396 JUMP JUMPDEST DUP3 MSTORE POP POP JUMP JUMPDEST PUSH1 0x0 PUSH1 0x20 DUP3 ADD SWAP1 POP PUSH2 0x29B PUSH1 0x0 DUP4 ADD DUP5 PUSH2 0x277 JUMP JUMPDEST SWAP3 SWAP2 POP POP JUMP JUMPDEST PUSH1 0x0 PUSH2 0x2AC DUP3 PUSH2 0x396 JUMP JUMPDEST SWAP2 POP PUSH2 0x2B7 DUP4 PUSH2 0x396 JUMP JUMPDEST SWAP3 POP DUP3 PUSH16 0xFFFFFFFFFFFFFFFFFFFFFFFFFFFFFFFF SUB DUP3 GT ISZERO PUSH2 0x2DC JUMPI PUSH2 0x2DB PUSH2 0x3B2 JUMP JUMPDEST JUMPDEST DUP3 DUP3 ADD SWAP1 POP SWAP3 SWAP2 POP POP JUMP JUMPDEST PUSH1 0x0 PUSH2 0x2F2 DUP3 PUSH2 0x396 JUMP JUMPDEST SWAP2 POP PUSH2 0x2FD DUP4 PUSH2 0x396 JUMP JUMPDEST SWAP3 POP DUP3 PUSH2 0x30D JUMPI PUSH2 0x30C PUSH2 0x3E1 JUMP JUMPDEST JUMPDEST DUP3 DUP3 DIV SWAP1 POP SWAP3 SWAP2 POP POP JUMP JUMPDEST PUSH1 0x0 PUSH2 0x323 DUP3 PUSH2 0x396 JUMP JUMPDEST SWAP2 POP PUSH2 0x32E DUP4 PUSH2 0x396 JUMP JUMPDEST SWAP3 POP DUP2 PUSH16 0xFFFFFFFFFFFFFFFFFFFFFFFFFFFFFFFF DIV DUP4 GT DUP3 ISZERO ISZERO AND ISZERO PUSH2 0x357 JUMPI PUSH2 0x356 PUSH2 0x3B2 JUMP JUMPDEST JUMPDEST DUP3 DUP3 MUL SWAP1 POP SWAP3 SWAP2 POP POP JUMP JUMPDEST PUSH1 0x0 PUSH2 0x36D DUP3 PUSH2 0x396 JUMP JUMPDEST SWAP2 POP PUSH2 0x378 DUP4 PUSH2 0x396 JUMP JUMPDEST SWAP3 POP DUP3 DUP3 LT ISZERO PUSH2 0x38B JUMPI PUSH2 0x38A PUSH2 0x3B2 JUMP JUMPDEST JUMPDEST DUP3 DUP3 SUB SWAP1 POP SWAP3 SWAP2 POP POP JUMP JUMPDEST PUSH1 0x0 PUSH16 0xFFFFFFFFFFFFFFFFFFFFFFFFFFFFFFFF DUP3 AND SWAP1 POP SWAP2 SWAP1 POP JUMP JUMPDEST PUSH32 0x4E487B7100000000000000000000000000000000000000000000000000000000 PUSH1 0x0 MSTORE PUSH1 0x11 PUSH1 0x4 MSTORE PUSH1 0x24 PUSH1 0x0 REVERT JUMPDEST PUSH32 0x4E487B7100000000000000000000000000000000000000000000000000000000 PUSH1 0x0 MSTORE PUSH1 0x12 PUSH1 0x4 MSTORE PUSH1 0x24 PUSH1 0x0 REVERT JUMPDEST PUSH2 0x419 DUP2 PUSH2 0x396 JUMP JUMPDEST DUP2 EQ PUSH2 0x424 JUMPI PUSH1 0x0 DUP1 REVERT JUMPDEST POP JUMP INVALID LOG2 PUSH5 0x6970667358 0x22 SLT KECCAK256 ADDRESS 0xEE POP 0xC9 SWAP7 PUSH24 0x66FCF606F2031BC7473099829B398262F60624639E99EE4F 0xDB 0xE2 PUSH5 0x736F6C6343 STOP ADDMOD SUB STOP CALLER "
		},
		"gasEstimates": {
			"creation": {
				"codeDepositCost": "223400",
				"executionCost": "21130",
				"totalCost": "244530"
			},
			"external": {
				"add(uint128,uint128)": "infinite",
				"answer()": "1168",
				"divide(uint128,uint128)": "infinite",
				"minus(uint128,uint128)": "infinite",
				"multiply(uint128,uint128)": "infinite"
			}
		},
		"methodIdentifiers": {
			"add(uint128,uint128)": "feb99390",
			"answer()": "85bb7d69",
			"divide(uint128,uint128)": "3ea23f32",
			"minus(uint128,uint128)": "da34d88b",
			"multiply(uint128,uint128)": "bbaa0820"
		}
	},
	"abi": [
		{
			"inputs": [
				{
					"internalType": "uint128",
					"name": "_a",
					"type": "uint128"
				},
				{
					"internalType": "uint128",
					"name": "_b",
					"type": "uint128"
				}
			],
			"name": "add",
			"outputs": [],
			"stateMutability": "nonpayable",
			"type": "function"
		},
		{
			"inputs": [],
			"name": "answer",
			"outputs": [
				{
					"internalType": "uint128",
					"name": "",
					"type": "uint128"
				}
			],
			"stateMutability": "view",
			"type": "function"
		},
		{
			"inputs": [
				{
					"internalType": "uint128",
					"name": "_a",
					"type": "uint128"
				},
				{
					"internalType": "uint128",
					"name": "_b",
					"type": "uint128"
				}
			],
			"name": "divide",
			"outputs": [],
			"stateMutability": "nonpayable",
			"type": "function"
		},
		{
			"inputs": [
				{
					"internalType": "uint128",
					"name": "_a",
					"type": "uint128"
				},
				{
					"internalType": "uint128",
					"name": "_b",
					"type": "uint128"
				}
			],
			"name": "minus",
			"outputs": [],
			"stateMutability": "nonpayable",
			"type": "function"
		},
		{
			"inputs": [
				{
					"internalType": "uint128",
					"name": "_a",
					"type": "uint128"
				},
				{
					"internalType": "uint128",
					"name": "_b",
					"type": "uint128"
				}
			],
			"name": "multiply",
			"outputs": [],
			"stateMutability": "nonpayable",
			"type": "function"
		}
	]
}